{
    "abi": [
        {
            "type": "constructor",
            "inputs": [],
            "stateMutability": "nonpayable"
        },
        {
            "type": "function",
            "name": "burn",
            "inputs": [
                {
                    "name": "lowerTick",
                    "type": "int24",
                    "internalType": "int24"
                },
                {
                    "name": "upperTick",
                    "type": "int24",
                    "internalType": "int24"
                },
                {
                    "name": "amount",
                    "type": "uint128",
                    "internalType": "uint128"
                }
            ],
            "outputs": [
                {
                    "name": "amount0",
                    "type": "uint256",
                    "internalType": "uint256"
                },
                {
                    "name": "amount1",
                    "type": "uint256",
                    "internalType": "uint256"
                }
            ],
            "stateMutability": "nonpayable"
        },
        {
            "type": "function",
            "name": "collect",
            "inputs": [
                {
                    "name": "recipient",
                    "type": "address",
                    "internalType": "address"
                },
                {
                    "name": "lowerTick",
                    "type": "int24",
                    "internalType": "int24"
                },
                {
                    "name": "upperTick",
                    "type": "int24",
                    "internalType": "int24"
                },
                {
                    "name": "amount0Requested",
                    "type": "uint128",
                    "internalType": "uint128"
                },
                {
                    "name": "amount1Requested",
                    "type": "uint128",
                    "internalType": "uint128"
                }
            ],
            "outputs": [
                {
                    "name": "amount0",
                    "type": "uint128",
                    "internalType": "uint128"
                },
                {
                    "name": "amount1",
                    "type": "uint128",
                    "internalType": "uint128"
                }
            ],
            "stateMutability": "nonpayable"
        },
        {
            "type": "function",
            "name": "factory",
            "inputs": [],
            "outputs": [
                {
                    "name": "",
                    "type": "address",
                    "internalType": "address"
                }
            ],
            "stateMutability": "view"
        },
        {
            "type": "function",
            "name": "fee",
            "inputs": [],
            "outputs": [
                {
                    "name": "",
                    "type": "uint24",
                    "internalType": "uint24"
                }
            ],
            "stateMutability": "view"
        },
        {
            "type": "function",
            "name": "feeGrowthGlobal0X128",
            "inputs": [],
            "outputs": [
                {
                    "name": "",
                    "type": "uint256",
                    "internalType": "uint256"
                }
            ],
            "stateMutability": "view"
        },
        {
            "type": "function",
            "name": "feeGrowthGlobal1X128",
            "inputs": [],
            "outputs": [
                {
                    "name": "",
                    "type": "uint256",
                    "internalType": "uint256"
                }
            ],
            "stateMutability": "view"
        },
        {
            "type": "function",
            "name": "flash",
            "inputs": [
                {
                    "name": "amount0",
                    "type": "uint256",
                    "internalType": "uint256"
                },
                {
                    "name": "amount1",
                    "type": "uint256",
                    "internalType": "uint256"
                },
                {
                    "name": "data",
                    "type": "bytes",
                    "internalType": "bytes"
                }
            ],
            "outputs": [],
            "stateMutability": "nonpayable"
        },
        {
            "type": "function",
            "name": "increaseObservationCardinalityNext",
            "inputs": [
                {
                    "name": "observationCardinalityNext",
                    "type": "uint16",
                    "internalType": "uint16"
                }
            ],
            "outputs": [],
            "stateMutability": "nonpayable"
        },
        {
            "type": "function",
            "name": "initialize",
            "inputs": [
                {
                    "name": "sqrtPriceX96",
                    "type": "uint160",
                    "internalType": "uint160"
                }
            ],
            "outputs": [],
            "stateMutability": "nonpayable"
        },
        {
            "type": "function",
            "name": "liquidity",
            "inputs": [],
            "outputs": [
                {
                    "name": "",
                    "type": "uint128",
                    "internalType": "uint128"
                }
            ],
            "stateMutability": "view"
        },
        {
            "type": "function",
            "name": "mint",
            "inputs": [
                {
                    "name": "owner",
                    "type": "address",
                    "internalType": "address"
                },
                {
                    "name": "lowerTick",
                    "type": "int24",
                    "internalType": "int24"
                },
                {
                    "name": "upperTick",
                    "type": "int24",
                    "internalType": "int24"
                },
                {
                    "name": "amount",
                    "type": "uint128",
                    "internalType": "uint128"
                },
                {
                    "name": "data",
                    "type": "bytes",
                    "internalType": "bytes"
                }
            ],
            "outputs": [
                {
                    "name": "amount0",
                    "type": "uint256",
                    "internalType": "uint256"
                },
                {
                    "name": "amount1",
                    "type": "uint256",
                    "internalType": "uint256"
                }
            ],
            "stateMutability": "nonpayable"
        },
        {
            "type": "function",
            "name": "observations",
            "inputs": [
                {
                    "name": "",
                    "type": "uint256",
                    "internalType": "uint256"
                }
            ],
            "outputs": [
                {
                    "name": "timestamp",
                    "type": "uint32",
                    "internalType": "uint32"
                },
                {
                    "name": "tickCumulative",
                    "type": "int56",
                    "internalType": "int56"
                },
                {
                    "name": "initialized",
                    "type": "bool",
                    "internalType": "bool"
                }
            ],
            "stateMutability": "view"
        },
        {
            "type": "function",
            "name": "observe",
            "inputs": [
                {
                    "name": "secondsAgos",
                    "type": "uint32[]",
                    "internalType": "uint32[]"
                }
            ],
            "outputs": [
                {
                    "name": "tickCumulatives",
                    "type": "int56[]",
                    "internalType": "int56[]"
                }
            ],
            "stateMutability": "view"
        },
        {
            "type": "function",
            "name": "positions",
            "inputs": [
                {
                    "name": "",
                    "type": "bytes32",
                    "internalType": "bytes32"
                }
            ],
            "outputs": [
                {
                    "name": "liquidity",
                    "type": "uint128",
                    "internalType": "uint128"
                },
                {
                    "name": "feeGrowthInside0LastX128",
                    "type": "uint256",
                    "internalType": "uint256"
                },
                {
                    "name": "feeGrowthInside1LastX128",
                    "type": "uint256",
                    "internalType": "uint256"
                },
                {
                    "name": "tokensOwed0",
                    "type": "uint128",
                    "internalType": "uint128"
                },
                {
                    "name": "tokensOwed1",
                    "type": "uint128",
                    "internalType": "uint128"
                }
            ],
            "stateMutability": "view"
        },
        {
            "type": "function",
            "name": "slot0",
            "inputs": [],
            "outputs": [
                {
                    "name": "sqrtPriceX96",
                    "type": "uint160",
                    "internalType": "uint160"
                },
                {
                    "name": "tick",
                    "type": "int24",
                    "internalType": "int24"
                },
                {
                    "name": "observationIndex",
                    "type": "uint16",
                    "internalType": "uint16"
                },
                {
                    "name": "observationCardinality",
                    "type": "uint16",
                    "internalType": "uint16"
                },
                {
                    "name": "observationCardinalityNext",
                    "type": "uint16",
                    "internalType": "uint16"
                }
            ],
            "stateMutability": "view"
        },
        {
            "type": "function",
            "name": "swap",
            "inputs": [
                {
                    "name": "recipient",
                    "type": "address",
                    "internalType": "address"
                },
                {
                    "name": "zeroForOne",
                    "type": "bool",
                    "internalType": "bool"
                },
                {
                    "name": "amountSpecified",
                    "type": "uint256",
                    "internalType": "uint256"
                },
                {
                    "name": "sqrtPriceLimitX96",
                    "type": "uint160",
                    "internalType": "uint160"
                },
                {
                    "name": "data",
                    "type": "bytes",
                    "internalType": "bytes"
                }
            ],
            "outputs": [
                {
                    "name": "amount0",
                    "type": "int256",
                    "internalType": "int256"
                },
                {
                    "name": "amount1",
                    "type": "int256",
                    "internalType": "int256"
                }
            ],
            "stateMutability": "nonpayable"
        },
        {
            "type": "function",
            "name": "tickBitmap",
            "inputs": [
                {
                    "name": "",
                    "type": "int16",
                    "internalType": "int16"
                }
            ],
            "outputs": [
                {
                    "name": "",
                    "type": "uint256",
                    "internalType": "uint256"
                }
            ],
            "stateMutability": "view"
        },
        {
            "type": "function",
            "name": "tickSpacing",
            "inputs": [],
            "outputs": [
                {
                    "name": "",
                    "type": "uint24",
                    "internalType": "uint24"
                }
            ],
            "stateMutability": "view"
        },
        {
            "type": "function",
            "name": "ticks",
            "inputs": [
                {
                    "name": "",
                    "type": "int24",
                    "internalType": "int24"
                }
            ],
            "outputs": [
                {
                    "name": "initialized",
                    "type": "bool",
                    "internalType": "bool"
                },
                {
                    "name": "liquidityGross",
                    "type": "uint128",
                    "internalType": "uint128"
                },
                {
                    "name": "liquidityNet",
                    "type": "int128",
                    "internalType": "int128"
                },
                {
                    "name": "feeGrowthOutside0X128",
                    "type": "uint256",
                    "internalType": "uint256"
                },
                {
                    "name": "feeGrowthOutside1X128",
                    "type": "uint256",
                    "internalType": "uint256"
                }
            ],
            "stateMutability": "view"
        },
        {
            "type": "function",
            "name": "token0",
            "inputs": [],
            "outputs": [
                {
                    "name": "",
                    "type": "address",
                    "internalType": "address"
                }
            ],
            "stateMutability": "view"
        },
        {
            "type": "function",
            "name": "token1",
            "inputs": [],
            "outputs": [
                {
                    "name": "",
                    "type": "address",
                    "internalType": "address"
                }
            ],
            "stateMutability": "view"
        },
        {
            "type": "event",
            "name": "Burn",
            "inputs": [
                {
                    "name": "owner",
                    "type": "address",
                    "indexed": true,
                    "internalType": "address"
                },
                {
                    "name": "tickLower",
                    "type": "int24",
                    "indexed": true,
                    "internalType": "int24"
                },
                {
                    "name": "tickUpper",
                    "type": "int24",
                    "indexed": true,
                    "internalType": "int24"
                },
                {
                    "name": "amount",
                    "type": "uint128",
                    "indexed": false,
                    "internalType": "uint128"
                },
                {
                    "name": "amount0",
                    "type": "uint256",
                    "indexed": false,
                    "internalType": "uint256"
                },
                {
                    "name": "amount1",
                    "type": "uint256",
                    "indexed": false,
                    "internalType": "uint256"
                }
            ],
            "anonymous": false
        },
        {
            "type": "event",
            "name": "Collect",
            "inputs": [
                {
                    "name": "owner",
                    "type": "address",
                    "indexed": true,
                    "internalType": "address"
                },
                {
                    "name": "recipient",
                    "type": "address",
                    "indexed": false,
                    "internalType": "address"
                },
                {
                    "name": "tickLower",
                    "type": "int24",
                    "indexed": true,
                    "internalType": "int24"
                },
                {
                    "name": "tickUpper",
                    "type": "int24",
                    "indexed": true,
                    "internalType": "int24"
                },
                {
                    "name": "amount0",
                    "type": "uint256",
                    "indexed": false,
                    "internalType": "uint256"
                },
                {
                    "name": "amount1",
                    "type": "uint256",
                    "indexed": false,
                    "internalType": "uint256"
                }
            ],
            "anonymous": false
        },
        {
            "type": "event",
            "name": "Flash",
            "inputs": [
                {
                    "name": "recipient",
                    "type": "address",
                    "indexed": true,
                    "internalType": "address"
                },
                {
                    "name": "amount0",
                    "type": "uint256",
                    "indexed": false,
                    "internalType": "uint256"
                },
                {
                    "name": "amount1",
                    "type": "uint256",
                    "indexed": false,
                    "internalType": "uint256"
                }
            ],
            "anonymous": false
        },
        {
            "type": "event",
            "name": "IncreaseObservationCardinalityNext",
            "inputs": [
                {
                    "name": "observationCardinalityNextOld",
                    "type": "uint16",
                    "indexed": false,
                    "internalType": "uint16"
                },
                {
                    "name": "observationCardinalityNextNew",
                    "type": "uint16",
                    "indexed": false,
                    "internalType": "uint16"
                }
            ],
            "anonymous": false
        },
        {
            "type": "event",
            "name": "Mint",
            "inputs": [
                {
                    "name": "sender",
                    "type": "address",
                    "indexed": false,
                    "internalType": "address"
                },
                {
                    "name": "owner",
                    "type": "address",
                    "indexed": true,
                    "internalType": "address"
                },
                {
                    "name": "tickLower",
                    "type": "int24",
                    "indexed": true,
                    "internalType": "int24"
                },
                {
                    "name": "tickUpper",
                    "type": "int24",
                    "indexed": true,
                    "internalType": "int24"
                },
                {
                    "name": "amount",
                    "type": "uint128",
                    "indexed": false,
                    "internalType": "uint128"
                },
                {
                    "name": "amount0",
                    "type": "uint256",
                    "indexed": false,
                    "internalType": "uint256"
                },
                {
                    "name": "amount1",
                    "type": "uint256",
                    "indexed": false,
                    "internalType": "uint256"
                }
            ],
            "anonymous": false
        },
        {
            "type": "event",
            "name": "Swap",
            "inputs": [
                {
                    "name": "sender",
                    "type": "address",
                    "indexed": true,
                    "internalType": "address"
                },
                {
                    "name": "recipient",
                    "type": "address",
                    "indexed": true,
                    "internalType": "address"
                },
                {
                    "name": "amount0",
                    "type": "int256",
                    "indexed": false,
                    "internalType": "int256"
                },
                {
                    "name": "amount1",
                    "type": "int256",
                    "indexed": false,
                    "internalType": "int256"
                },
                {
                    "name": "sqrtPriceX96",
                    "type": "uint160",
                    "indexed": false,
                    "internalType": "uint160"
                },
                {
                    "name": "liquidity",
                    "type": "uint128",
                    "indexed": false,
                    "internalType": "uint128"
                },
                {
                    "name": "tick",
                    "type": "int24",
                    "indexed": false,
                    "internalType": "int24"
                }
            ],
            "anonymous": false
        },
        {
            "type": "error",
            "name": "AlreadyInitialized",
            "inputs": []
        },
        {
            "type": "error",
            "name": "FlashLoanNotPaid",
            "inputs": []
        },
        {
            "type": "error",
            "name": "InsufficientInputAmount",
            "inputs": []
        },
        {
            "type": "error",
            "name": "InvalidPriceLimit",
            "inputs": []
        },
        {
            "type": "error",
            "name": "InvalidTickRange",
            "inputs": []
        },
        {
            "type": "error",
            "name": "NotEnoughLiquidity",
            "inputs": []
        },
        {
            "type": "error",
            "name": "PRBMath_MulDiv_Overflow",
            "inputs": [
                {
                    "name": "x",
                    "type": "uint256",
                    "internalType": "uint256"
                },
                {
                    "name": "y",
                    "type": "uint256",
                    "internalType": "uint256"
                },
                {
                    "name": "denominator",
                    "type": "uint256",
                    "internalType": "uint256"
                }
            ]
        },
        {
            "type": "error",
            "name": "ZeroLiquidity",
            "inputs": []
        }
    ],
    "bytecode": {
        "object": "0x61012060405234620000da576200001562000284565b6200001f620000e0565b6183736200033b823960805181610e9a015260a0518181816101910152818161271c015281816133e401528181613b0f01528181613c9a01528181613fca01526142a9015260c051818181610f760152818161264a015281816131bd01528181613b8b01528181613d3701528181613f170152614364015260e051818181610ef30152818161211a0152818161215f0152612c630152610100518181816110f501528181612d1701528181613a840152613ac6015261837390f35b620000e6565b60405190565b5f80fd5b60018060a01b031690565b90565b620001116200010b6200011792620000ea565b620000f5565b620000ea565b90565b6200012590620000f8565b90565b62000133906200011a565b90565b6200014190620000f8565b90565b6200014f9062000136565b90565b601f801991011690565b634e487b7160e01b5f52604160045260245ffd5b906200017c9062000152565b810190811060018060401b038211176200019557604052565b6200015c565b60e01b90565b5f80fd5b620001b090620000ea565b90565b620001be81620001a5565b03620001c657565b5f80fd5b90505190620001d982620001b3565b565b62ffffff1690565b620001ee81620001db565b03620001f657565b5f80fd5b905051906200020982620001e3565b565b919060a083820312620002675762000226815f8501620001ca565b92620002368260208301620001ca565b92620002646200024a8460408501620001ca565b936200025a8160608601620001fa565b93608001620001fa565b90565b620001a1565b5f0190565b6200027c620000e0565b3d5f823e3d90fd5b620002b860a06200029f620002993362000128565b62000144565b638903573090620002af620000e0565b9384926200019b565b8252815f81620002cb600482016200026d565b03925af1801562000334575f80808080919395909294620002fa575b506101005260e05260c05260a052608052565b935050505062000325915060a03d81116200032c575b6200031c818362000170565b8101906200020b565b5f620002e7565b503d62000310565b6200027256fe60806040526004361015610013575b611382565b61001d5f3561016c565b80630dfe1681146101675780631a68650214610162578063252c09d71461015d57806332148f67146101585780633850c7bd146101535780633c8a7d8d1461014e57806346141319146101495780634a182392146101445780634f1eb3d81461013f578063514ea4bf1461013a5780635339c29614610135578063883bdbfd14610130578063a34123a71461012b578063c45a015514610126578063d0c93a7c14610121578063d21220a71461011c578063dd5a12d814610117578063ddca3f4314610112578063f30583991461010d578063f30dba93146101085763f637731d0361000e5761134f565b6112f8565b611159565b611117565b6110b6565b610f98565b610f3f565b610ebc565b610e61565b610df1565b610ca8565b610bda565b610a39565b610989565b610902565b610878565b6106eb565b61052a565b6104a5565b6102a6565b6101ec565b60e01c90565b60405190565b5f80fd5b5f80fd5b5f91031261018a57565b61017c565b7f000000000000000000000000000000000000000000000000000000000000000090565b60018060a01b031690565b6101c7906101b3565b90565b6101d3906101be565b9052565b91906101ea905f602085019401906101ca565b565b3461021c576101fc366004610180565b61021861020761018f565b61020f610172565b918291826101d7565b0390f35b610178565b1c90565b6fffffffffffffffffffffffffffffffff1690565b61024a90600861024f9302610221565b610225565b90565b9061025d915461023a565b90565b61026c60035f90610252565b90565b6fffffffffffffffffffffffffffffffff1690565b61028d9061026f565b9052565b91906102a4905f60208501940190610284565b565b346102d6576102b6366004610180565b6102d26102c1610260565b6102c9610172565b91829182610291565b0390f35b610178565b5f80fd5b90565b6102eb816102df565b036102f257565b5f80fd5b90503590610303826102e2565b565b9060208282031261031e5761031b915f016102f6565b90565b61017c565b634e487b7160e01b5f52603260045260245ffd5b5061ffff90565b90565b61034a81610337565b8210156103645761035c60019161033e565b910201905f90565b610323565b5f1c90565b63ffffffff1690565b61038361038891610369565b61036e565b90565b6103959054610377565b90565b60201c90565b60060b90565b6103b06103b591610398565b61039e565b90565b6103c290546103a4565b90565b60581c90565b60ff1690565b6103dd6103e2916103c5565b6103cb565b90565b6103ef90546103d1565b90565b6007906103fe82610337565b8110156104345761040e91610341565b5061041a5f820161038b565b916104315f61042a8185016103b8565b93016103e5565b90565b5f80fd5b63ffffffff1690565b61044a90610438565b9052565b60060b90565b61045d9061044e565b9052565b151590565b61046f90610461565b9052565b60409061049c6104a3949695939661049260608401985f850190610441565b6020830190610454565b0190610466565b565b346104d8576104d46104c06104bb366004610305565b6103f2565b6104cb939193610172565b93849384610473565b0390f35b610178565b61ffff1690565b6104ed816104dd565b036104f457565b5f80fd5b90503590610505826104e4565b565b906020828203126105205761051d915f016104f8565b90565b61017c565b5f0190565b346105585761054261053d366004610507565b614204565b61054a610172565b8061055481610525565b0390f35b610178565b60018060a01b031690565b61057461057991610369565b61055d565b90565b6105869054610568565b90565b60a01c90565b60020b90565b6105a16105a691610589565b61058f565b90565b6105b39054610595565b90565b60b81c90565b61ffff1690565b6105cf6105d4916105b6565b6105bc565b90565b6105e190546105c3565b90565b60c81c90565b6105f66105fb916105e4565b6105bc565b90565b61060890546105ea565b90565b60d81c90565b61061d6106229161060b565b6105bc565b90565b61062f9054610611565b90565b600261063f5f820161057c565b9161064b5f83016105a9565b916106575f82016105d7565b9161066e5f6106678185016105fe565b9301610625565b90565b61067a906101b3565b9052565b60020b90565b61068d9061067e565b9052565b61069a906104dd565b9052565b909594926106e9946106d86106e2926106ce6080966106c460a088019c5f890190610671565b6020870190610684565b6040850190610691565b6060830190610691565b0190610691565b565b3461071f576106fb366004610180565b61071b610706610632565b91610712959395610172565b9586958661069e565b0390f35b610178565b61072d816101be565b0361073457565b5f80fd5b9050359061074582610724565b565b6107508161067e565b0361075757565b5f80fd5b9050359061076882610747565b565b6107738161026f565b0361077a57565b5f80fd5b9050359061078b8261076a565b565b5f80fd5b5f80fd5b5f80fd5b909182601f830112156107d35781359167ffffffffffffffff83116107ce5760200192600183028401116107c957565b610795565b610791565b61078d565b91909160a081840312610843576107f1835f8301610738565b926107ff816020840161075b565b9261080d826040850161075b565b9261081b836060830161077e565b92608082013567ffffffffffffffff811161083e5761083a9201610799565b9091565b6102db565b61017c565b610851906102df565b9052565b91602061087692949361086f60408201965f830190610848565b0190610848565b565b346108b05761089761088b3660046107d8565b949390939291926119ac565b906108ac6108a3610172565b92839283610855565b0390f35b610178565b90565b6108c89060086108cd9302610221565b6108b5565b90565b906108db91546108b8565b90565b6108ea60015f906108d0565b90565b9190610900905f60208501940190610848565b565b3461093257610912366004610180565b61092e61091d6108de565b610925610172565b918291826108ed565b0390f35b610178565b916060838303126109845761094e825f85016102f6565b9261095c83602083016102f6565b92604082013567ffffffffffffffff811161097f5761097b9201610799565b9091565b6102db565b61017c565b346109bb576109a561099c366004610937565b92919091613a7a565b6109ad610172565b806109b781610525565b0390f35b610178565b919060a083820312610a11576109d8815f8501610738565b926109e6826020830161075b565b92610a0e6109f7846040850161075b565b93610a05816060860161077e565b9360800161077e565b90565b61017c565b916020610a37929493610a3060408201965f830190610284565b0190610284565b565b34610a6e57610a55610a4c3660046109c0565b93929092612500565b90610a6a610a61610172565b92839283610a16565b0390f35b610178565b90565b610a7f81610a73565b03610a8657565b5f80fd5b90503590610a9782610a76565b565b90602082820312610ab257610aaf915f01610a8a565b90565b61017c565b610ac090610a73565b90565b90610acd90610ab7565b5f5260205260405f2090565b610ae5610aea91610369565b610225565b90565b610af79054610ad9565b90565b610b06610b0b91610369565b6108b5565b90565b610b189054610afa565b90565b60801c90565b610b2d610b3291610b1b565b610225565b90565b610b3f9054610b21565b90565b610b4d906006610ac3565b610b585f8201610aed565b91610b6560018301610b0e565b91610b7260028201610b0e565b91610b8a6003610b83818501610aed565b9301610b35565b90565b90959492610bd894610bc7610bd192610bbd608096610bb360a088019c5f890190610284565b6020870190610848565b6040850190610848565b6060830190610284565b0190610284565b565b34610c0e57610c0a610bf5610bf0366004610a99565b610b42565b91610c01959395610172565b95869586610b8d565b0390f35b610178565b60010b90565b610c2281610c13565b03610c2957565b5f80fd5b90503590610c3a82610c19565b565b90602082820312610c5557610c52915f01610c2d565b90565b61017c565b90565b610c71610c6c610c7692610c13565b610c5a565b610c13565b90565b90610c8390610c5d565b5f5260205260405f2090565b610ca590610ca06005915f92610c79565b6108d0565b90565b34610cd857610cd4610cc3610cbe366004610c3c565b610c8f565b610ccb610172565b918291826108ed565b0390f35b610178565b909182601f83011215610d175781359167ffffffffffffffff8311610d12576020019260208302840111610d0d57565b610795565b610791565b61078d565b90602082820312610d4d575f82013567ffffffffffffffff8111610d4857610d449201610cdd565b9091565b6102db565b61017c565b5190565b60209181520190565b60200190565b610d6e9061044e565b9052565b90610d7f81602093610d65565b0190565b60200190565b90610da6610da0610d9984610d52565b8093610d56565b92610d5f565b905f5b818110610db65750505090565b909192610dcf610dc96001928651610d72565b94610d83565b9101919091610da9565b610dee9160208201915f818403910152610d89565b90565b34610e2257610e1e610e0d610e07366004610d1c565b90614185565b610e15610172565b91829182610dd9565b0390f35b610178565b9091606082840312610e5c57610e59610e42845f850161075b565b93610e50816020860161075b565b9360400161077e565b90565b61017c565b34610e9357610e7a610e74366004610e27565b916122a3565b90610e8f610e86610172565b92839283610855565b0390f35b610178565b7f000000000000000000000000000000000000000000000000000000000000000090565b34610eec57610ecc366004610180565b610ee8610ed7610e98565b610edf610172565b918291826101d7565b0390f35b610178565b7f000000000000000000000000000000000000000000000000000000000000000090565b62ffffff1690565b610f2690610f15565b9052565b9190610f3d905f60208501940190610f1d565b565b34610f6f57610f4f366004610180565b610f6b610f5a610ef1565b610f62610172565b91829182610f2a565b0390f35b610178565b7f000000000000000000000000000000000000000000000000000000000000000090565b34610fc857610fa8366004610180565b610fc4610fb3610f74565b610fbb610172565b918291826101d7565b0390f35b610178565b610fd681610461565b03610fdd57565b5f80fd5b90503590610fee82610fcd565b565b610ff9816101b3565b0361100057565b5f80fd5b9050359061101182610ff0565b565b91909160a08184031261107e5761102c835f8301610738565b9261103a8160208401610fe1565b9261104882604085016102f6565b926110568360608301611004565b92608082013567ffffffffffffffff8111611079576110759201610799565b9091565b6102db565b61017c565b90565b61108f90611083565b9052565b9160206110b49294936110ad60408201965f830190611086565b0190611086565b565b346110ee576110d56110c9366004611013565b94939093929192612b04565b906110ea6110e1610172565b92839283611093565b0390f35b610178565b7f000000000000000000000000000000000000000000000000000000000000000090565b3461114757611127366004610180565b6111436111326110f3565b61113a610172565b91829182610f2a565b0390f35b610178565b6111565f806108d0565b90565b3461118957611169366004610180565b61118561117461114c565b61117c610172565b918291826108ed565b0390f35b610178565b906020828203126111a7576111a4915f0161075b565b90565b61017c565b6111c06111bb6111c59261067e565b610c5a565b61067e565b90565b906111d2906111ac565b5f5260205260405f2090565b6111ea6111ef91610369565b6103cb565b90565b6111fc90546111de565b90565b60081c90565b611211611216916111ff565b610225565b90565b6112239054611205565b90565b600f0b90565b61123861123d91610369565b611226565b90565b61124a905461122c565b90565b6112589060046111c8565b6112635f82016111f2565b9161126f5f8301611219565b9161127c60018201611240565b91611295600361128e60028501610b0e565b9301610b0e565b90565b600f0b90565b6112a790611298565b9052565b909594926112f6946112e56112ef926112db6080966112d160a088019c5f890190610466565b6020870190610284565b604085019061129e565b6060830190610848565b0190610848565b565b3461132c5761132861131361130e36600461118e565b61124d565b9161131f959395610172565b958695866112ab565b0390f35b610178565b9060208282031261134a57611347915f01611004565b90565b61017c565b3461137d57611367611362366004611331565b611699565b61136f610172565b8061137981610525565b0390f35b610178565b5f80fd5b90565b61139d6113986113a292611386565b610c5a565b6101b3565b90565b90565b601f801991011690565b634e487b7160e01b5f52604160045260245ffd5b906113d0906113a8565b810190811067ffffffffffffffff8211176113ea57604052565b6113b2565b906114026113fb610172565b92836113c6565b565b61140e60a06113ef565b90565b9061141b906101b3565b9052565b906114299061067e565b9052565b61144161143c61144692611386565b610c5a565b6104dd565b90565b90611453906104dd565b9052565b634e487b7160e01b5f525f60045260245ffd5b61147490516101b3565b90565b5f1b90565b9061148d60018060a01b0391611477565b9181191691161790565b6114ab6114a66114b0926101b3565b610c5a565b6101b3565b90565b90565b906114cb6114c66114d292611497565b6114b3565b825461147c565b9055565b6114e0905161067e565b90565b60a01b90565b906114fa62ffffff60a01b916114e3565b9181191691161790565b90565b9061151c611517611523926111ac565b611504565b82546114e9565b9055565b61153190516104dd565b90565b60b81b90565b9061154a61ffff60b81b91611534565b9181191691161790565b61156861156361156d926104dd565b610c5a565b6104dd565b90565b90565b9061158861158361158f92611554565b611570565b825461153a565b9055565b60c81b90565b906115a961ffff60c81b91611593565b9181191691161790565b906115c86115c36115cf92611554565b611570565b8254611599565b9055565b60d81b90565b906115e961ffff60d81b916115d3565b9181191691161790565b9061160861160361160f92611554565b611570565b82546115d9565b9055565b9061168560805f61168b9461163582820161162f84880161146a565b906114b6565b61164d828201611647602088016114d6565b90611507565b61166582820161165f60408801611527565b90611573565b61167d82820161167760608801611527565b906115b3565b019201611527565b906115f3565b565b9061169791611613565b565b6116a55f60020161057c565b6116b76116b15f611389565b916101b3565b03611744578061173b6117206117326116d261174295617fe7565b936117296116f16116e360076113a5565b6116eb614429565b90614b04565b94909492969461171b5f919496611712611709611404565b9a5f8c01611411565b60208a0161141f565b61142d565b60408701611449565b60608501611449565b60808301611449565b600261168d565b565b61174c610172565b62dc149f60e41b81528061176260048201610525565b0390fd5b5f90565b90565b61178161177c6117869261176a565b610c5a565b61067e565b90565b611796620d89e71961176d565b90565b634e487b7160e01b5f52601160045260245ffd5b6117b69061067e565b627fffff1981146117c6575f0390565b611799565b6117db6117d6611789565b6117ad565b90565b6117f26117ed6117f792611386565b610c5a565b61026f565b90565b61180e6118096118139261026f565b610c5a565b611298565b90565b61182060806113ef565b90565b9061182d906101be565b9052565b9061183b90611298565b9052565b61185361184e61185892611083565b610c5a565b6102df565b90565b61186f61186a61187492611386565b610c5a565b6102df565b90565b61188090611497565b90565b61188c90611877565b90565b61189890611497565b90565b6118a49061188f565b90565b5f80fd5b60e01b90565b5f9103126118bb57565b61017c565b60209181520190565b90825f939282370152565b91906118ee816118e7816118f3956118c0565b80956118c9565b6113a8565b0190565b61191d61192a959394929461191360608401965f850190610848565b6020830190610848565b60408185039101526118d4565b90565b611935610172565b3d5f823e3d90fd5b61194c611952919392936102df565b926102df565b820180921161195d57565b611799565b61196b9061188f565b90565b6119a36119aa9461199960609498979561198f608086019a5f8701906101ca565b6020850190610284565b6040830190610848565b0190610848565b565b929190959394956119bb611766565b506119c4611766565b50806119d86119d28461067e565b9161067e565b12158015611d01575b8015611ce0575b611cbe57826119ff6119f95f6117de565b9161026f565b14611c9b57611a6096611a66611a5886611a5385611a4a88611a41611a238c6117fa565b93611a38611a2f611816565b975f8901611823565b6020870161141f565b6040850161141f565b60608301611831565b611e56565b9a915061183f565b9861183f565b96611a6f611766565b90611a78611766565b928a611a8c611a865f61185b565b916102df565b11611c8b575b89611aa5611a9f5f61185b565b916102df565b11611c7b575b611abc611ab733611883565b61189b565b9063d3487997918c918c9490823b15611c76575f94611af98692611aee94611ae2610172565b998a98899788966118ab565b8652600486016118f7565b03925af18015611c7157611c45575b5088611b1c611b165f61185b565b916102df565b119081611c19575b50611bf65786611b3c611b365f61185b565b916102df565b119081611bca575b50611ba75733939091928794611ba288611b90611b8a611b847f7a53080ba414158be7ec69b987b5fb7d07dee101fe85488f0853ae16239d0bde97611962565b976111ac565b976111ac565b97611b99610172565b9485948561196e565b0390a4565b611baf610172565b63098fb56160e01b815280611bc660048201610525565b0390fd5b611bd69150879061193d565b611bef611be9611be461434e565b6102df565b916102df565b115f611b44565b611bfe610172565b63098fb56160e01b815280611c1560048201610525565b0390fd5b611c259150899061193d565b611c3e611c38611c33614293565b6102df565b916102df565b115f611b24565b611c64905f3d8111611c6a575b611c5c81836113c6565b8101906118b1565b5f611b08565b503d611c52565b61192d565b6118a7565b9250611c8561434e565b92611aab565b9150611c95614293565b91611a92565b611ca3610172565b630200e8a960e31b815280611cba60048201610525565b0390fd5b611cc6610172565b6264847d60e41b815280611cdc60048201610525565b0390fd5b5081611cfb611cf5611cf06117cb565b61067e565b9161067e565b136119e8565b5080611d1c611d16611d11611789565b61067e565b9161067e565b126119e1565b5f90565b611d3060a06113ef565b90565b90611dae611da55f611d43611d26565b94611d5a611d5283830161057c565b838801611411565b611d71611d688383016105a9565b6020880161141f565b611d88611d7f8383016105d7565b60408801611449565b611d9f611d968383016105fe565b60608801611449565b01610625565b60808401611449565b565b611db990611d33565b90565b611dc690516101be565b90565b611dd39051611298565b90565b611dea611de5611def92610f15565b610c5a565b61067e565b90565b90611e0d6fffffffffffffffffffffffffffffffff91611477565b9181191691161790565b611e2b611e26611e309261026f565b610c5a565b61026f565b90565b90565b90611e4b611e46611e5292611e17565b611e33565b8254611df2565b9055565b90611e5f611d22565b91611e68611d22565b90611e736002611db0565b611e7c5f610b0e565b94611f78611f62611e8d6001610b0e565b97611ebd6006611e9e5f8901611dbc565b611eaa60208a016114d6565b90611eb760408b016114d6565b92615938565b98611ef26004611ecf60208a016114d6565b611edb60208a016114d6565b611ee760608c01611dc9565b869186935f95615fc5565b611f276004611f0360408b016114d6565b611f0f60208b016114d6565b611f1b60608d01611dc9565b87918793600195615fc5565b90612149575b612104575b600491611f41602089016114d6565b611f4d60408a016114d6565b90611f5a60208a016114d6565b92939461619f565b8891611f7060608801611dc9565b90919261598e565b611f84602083016114d6565b611fa1611f9b611f96602087016114d6565b61067e565b9161067e565b125f14611fed57505080611fc2611fbd6020611fe994016114d6565b617505565b90611fe36060611fdc611fd7604085016114d6565b617505565b9201611dc9565b916144d2565b915b565b9093919250611ffe602085016114d6565b61201b612015612010604087016114d6565b61067e565b9161067e565b125f146120bc57506120b66120af61209261206061203a5f880161146a565b61204e612049604089016114d6565b617505565b61205a60608901611dc9565b916144d2565b956120805f61207961207460208a016114d6565b617505565b920161146a565b61208c60608801611dc9565b91614700565b936120a960606120a26003610aed565b9201611dc9565b90614476565b6003611e36565b5b611feb565b925090806120d76120d260206120fe94016114d6565b617505565b906120f860606120f16120ec604085016114d6565b617505565b9201611dc9565b91614700565b906120b7565b612144600561211560408a016114d6565b61213e7f0000000000000000000000000000000000000000000000000000000000000000611dd6565b91616378565b611f32565b612189600561215a60208b016114d6565b6121837f0000000000000000000000000000000000000000000000000000000000000000611dd6565b91616378565b611f2d565b61219790611298565b6f7fffffffffffffffffffffffffffffff1981146121b4575f0390565b611799565b6121c290611083565b600160ff1b81146121d2575f0390565b611799565b6121eb6121e66121f0926102df565b610c5a565b61026f565b90565b6121ff6122059161026f565b9161026f565b01906fffffffffffffffffffffffffffffffff821161222057565b611799565b60801b90565b906122476fffffffffffffffffffffffffffffffff1991612225565b9181191691161790565b9061226661226161226d92611e17565b611e33565b825461222b565b9055565b60409061229a6122a1949695939661229060608401985f850190610284565b6020830190610848565b0190610848565b565b6123229261232794926122b4611766565b506122bd611766565b5061233261232d612319336123148761230b876123026122e46122df8c6117fa565b61218e565b936122f96122f0611816565b975f8901611823565b6020870161141f565b6040850161141f565b60608301611831565b611e56565b999198906121b9565b61183f565b976121b9565b61183f565b94866123466123405f61185b565b916102df565b11801561240d575b6123b2575b5033929091928686946123ad61239b61239561238f7f0c396cd989a39f4459b5fa1aed6a9a8dcdbc45908acfd67e028cd568da98982c96611962565b966111ac565b966111ac565b966123a4610172565b93849384612271565b0390a4565b806123d46123c560036124079401610aed565b6123ce8a6121d7565b906121f3565b906124026123f66123e760038401610b35565b6123f08b6121d7565b906121f3565b60038084019301612251565b611e36565b5f612353565b508561242161241b5f61185b565b916102df565b1161234e565b5f90565b61243761243d9161026f565b9161026f565b9003906fffffffffffffffffffffffffffffffff821161245957565b611799565b61246790611497565b90565b6124739061245e565b90565b61247f9061188f565b90565b61249661249161249b9261026f565b610c5a565b6102df565b90565b6124a790612482565b9052565b9160206124cc9294936124c560408201965f8301906101ca565b019061249e565b565b6040906124f76124fe94969593966124ed60608401985f8501906101ca565b602083019061249e565b019061249e565b565b90919492939461250e612427565b50612517612427565b5061252760063385908492615938565b948061254661254061253b60038a01610aed565b61026f565b9161026f565b115f146127cc575061255a60038601610aed565b5b958061257a61257461256f60038a01610b35565b61026f565b9161026f565b115f146127c7575061258e60038601610b35565b5b94866125a361259d5f6117de565b9161026f565b116126f4575b856125bc6125b65f6117de565b9161026f565b11612621575b50339192909186869461261c61260a6126046125fe7fa89c1c8a741251492622c95237828c75d1dbb03ea956f09e3792ff2a14f4fe6296611962565b966111ac565b966111ac565b96612613610172565b938493846124ce565b0390a4565b6126429061263c60038892019161263783610b35565b61242b565b90612251565b61267361266e7f000000000000000000000000000000000000000000000000000000000000000061246a565b612476565b63a9059cbb838792803b156126ef5761269f5f80946126aa612693610172565b978896879586946118ab565b8452600484016124ab565b03925af180156126ea576126be575b6125c2565b6126dd905f3d81116126e3575b6126d581836113c6565b8101906118b1565b5f6126b9565b503d6126cb565b61192d565b6118a7565b6127148761270e600384019161270983610aed565b61242b565b90611e36565b6127456127407f000000000000000000000000000000000000000000000000000000000000000061246a565b612476565b63a9059cbb848992803b156127c2576127715f809461277c612765610172565b978896879586946118ab565b8452600484016124ab565b03925af180156127bd57612791575b506125a9565b6127b0905f3d81116127b6575b6127a881836113c6565b8101906118b1565b5f61278b565b503d61279e565b61192d565b6118a7565b61258f565b61255b565b90565b6127e86127e36127ed926127d1565b610c5a565b6101b3565b90565b61280d73fffd8963efd1fc6a506488495d951d5263988d266127d4565b90565b90565b61282761282261282c92612810565b610c5a565b6101b3565b90565b61283d6401000276a3612813565b90565b61284a60c06113ef565b90565b90612857906102df565b9052565b906128659061026f565b9052565b61287390516102df565b90565b61288060e06113ef565b90565b5f90565b5f90565b5f90565b5f90565b61289b612876565b906020808080808080886128ad612883565b8152016128b8612887565b8152016128c361288b565b8152016128ce612883565b8152016128d961288f565b8152016128e461288f565b8152016128ef61288f565b81525050565b6128fd612893565b90565b9061290a90610461565b9052565b612918905161026f565b90565b61292a612930919392936102df565b926102df565b820391821161293b57565b611799565b90565b61295761295261295c92612940565b610c5a565b6102df565b90565b61296c600160801b612943565b90565b6129799051610461565b90565b90565b61299361298e6129989261297c565b610c5a565b61067e565b90565b6129a76129ad9161067e565b9161067e565b900390627fffff8213627fffff198312176129c457565b611799565b906129d55f1991611477565b9181191691161790565b6129f36129ee6129f8926102df565b610c5a565b6102df565b90565b90565b90612a13612a0e612a1a926129df565b6129fb565b82546129c9565b9055565b612a32612a2d612a37926102df565b610c5a565b611083565b90565b916020612a5b929493612a5460408201965f8301906101ca565b0190610848565b565b612a6690611497565b90565b612a7290612a5d565b90565b612a7e9061188f565b90565b612aa7612ab49593949294612a9d60608401965f850190611086565b6020830190611086565b60408185039101526118d4565b90565b90959492612b0294612af1612afb92612ae7608096612add60a088019c5f890190611086565b6020870190611086565b6040850190610671565b6060830190610284565b0190610684565b565b90939591949295612b13611d22565b50612b1c611d22565b50612b276002611db0565b95612b326003610aed565b865f146136a05788612b56612b50612b4b5f8c0161146a565b6101b3565b916101b3565b11801561367f575b5b61365c575f612beb83612be28b612bd98c612bd08793612b8c6020612b858b840161146a565b92016114d6565b92891461364657612bc7612bbe612ba28b610b0e565b965b612bb98d9a612bb1612840565b9d8e0161284d565b61185b565b60208b0161284d565b60408901611411565b6060870161141f565b6080850161284d565b60a0830161285b565b975b612bf85f8a01612869565b612c0a612c045f61185b565b916102df565b1180613620575b156130525789612d6c612d606040612d668d612d3c8e612c2f6128f5565b97612c46612c3e87860161146a565b5f8b01611411565b612ca489612c9e612c8f6005612c5e60608a016114d6565b612c877f0000000000000000000000000000000000000000000000000000000000000000611dd6565b9088926165bd565b8a602085949394019401612900565b9061141f565b612cc4612cbb612cb660208c016114d6565b617505565b60608b01611411565b612ccf86850161146a565b915f1461302e57612ce260608a0161146a565b612cf4612cee836101b3565b916101b3565b105b5f1461301c575b612d0960a0850161290e565b612d145f8601612869565b917f000000000000000000000000000000000000000000000000000000000000000093615b1d565b96919295909301956080890193612d5a60a08b019260c08c0161284d565b9061284d565b9061284d565b90611411565b612dab612d90612d7e60808401612869565b612d8a60c08501612869565b9061193d565b612da55f8d0191612da083612869565b61291b565b9061284d565b612dd6612dba60a08301612869565b612dd060208d0191612dcb83612869565b61193d565b9061284d565b612de260a08b0161290e565b612df4612dee5f6117de565b9161026f565b11612fc6575b89612e076040820161146a565b612e24612e1e612e196060860161146a565b6101b3565b916101b3565b145f14612f6e5750612e386040820161296f565b612e88575b612e7190895f14612e7757612e576020612e6792016114d6565b612e61600161297f565b9061299b565b5b60608b0161141f565b5b612bed565b6020612e8391016114d6565b612e68565b612ef1612ee8612ed08c8c600491612ea2602088016114d6565b90825f14612f6057612eb660808201612869565b5b925f14612f4f5750612ec96001610b0e565b5b92616131565b8c8c612f37575b60a0612ee3910161290e565b614476565b60a08c0161285b565b612efd60a08b0161290e565b612f0f612f095f6117de565b9161026f565b03612e3d57612f1c610172565b634323a55560e01b815280612f3360048201610525565b0390fd5b9060a0612f46612ee39261218e565b92915050612ed7565b6080612f5b9101612869565b612eca565b612f695f610b0e565b612eb7565b612f90612f8b5f612f846040612f96950161146a565b940161146a565b6101b3565b916101b3565b03612fa1575b612e72565b612fc1612fb8612fb360408c0161146a565b617fe7565b60608b0161141f565b612f9c565b613017612ffb612fd860c08401612869565b8c612ff5612ff060a0612fe961295f565b930161290e565b612482565b916137d7565b61301160808d019161300c83612869565b61193d565b9061284d565b612dfa565b506130296060890161146a565b612cfd565b61303a60608a0161146a565b61304c613046836101b3565b916101b3565b11612cf6565b9091929394969850969496613069606087016114d6565b61308661308061307b602085016114d6565b61067e565b9161067e565b14155f14613602576130df61312a9161309f60076113a5565b906130ac60408201611527565b6130b4614429565b6130c0602084016114d6565b916130d960806130d260608701611527565b9501611527565b94614c4e565b6131256130ee60408a0161146a565b926130fb60608b016114d6565b90926131205f600201945f6002019261311b5f600201915f6002016115b3565b611573565b611507565b6114b6565b5b61314861314261313d60a0880161290e565b61026f565b9161026f565b036135e7575b865f146135cc5761316a61316460808601612869565b5f6129fe565b5b865f1461358d5761318a61318f916131845f8701612869565b9061291b565b612a1e565b946131ac6131a76131a260208701612869565b612a1e565b6121b9565b5b95965f146133dc576131e66131e17f000000000000000000000000000000000000000000000000000000000000000061246a565b612476565b63a9059cbb846131fd6131f88a6121b9565b61183f565b92803b156133d7576132225f809461322d613216610172565b978896879586946118ab565b845260048401612a3a565b03925af180156133d2576133a6575b50613245614293565b9061325761325233612a69565b612a75565b9063fa461e33918991899590823b156133a1575f9461329486926132899461327d610172565b9a8b98899788966118ab565b865260048601612a81565b03925af191821561339c576132b892613370575b506132b28761183f565b9061193d565b6132d16132cb6132c6614293565b6102df565b916102df565b1161334d575b338585906133486132f660a06132ef5f60020161057c565b970161290e565b6133025f6002016105a9565b906133366133307fc42079f94a6350d7e6235f29174924f928cc2ac818eb64fed8004e115fbcca6797611962565b97611962565b9761333f610172565b95869586612ab7565b0390a3565b613355610172565b63098fb56160e01b81528061336c60048201610525565b0390fd5b61338f905f3d8111613395575b61338781836113c6565b8101906118b1565b5f6132a8565b503d61337d565b61192d565b6118a7565b6133c5905f3d81116133cb575b6133bd81836113c6565b8101906118b1565b5f61323c565b503d6133b3565b61192d565b6118a7565b61340d6134087f000000000000000000000000000000000000000000000000000000000000000061246a565b612476565b63a9059cbb8461342461341f8b6121b9565b61183f565b92803b15613588576134495f809461345461343d610172565b978896879586946118ab565b845260048401612a3a565b03925af1801561358357613557575b5061346c61434e565b9061347e61347933612a69565b612a75565b9063fa461e33918991899590823b15613552575f946134bb86926134b0946134a4610172565b9a8b98899788966118ab565b865260048601612a81565b03925af191821561354d576134df92613521575b506134d98661183f565b9061193d565b6134f86134f26134ed61434e565b6102df565b916102df565b11156132d757613506610172565b63098fb56160e01b81528061351d60048201610525565b0390fd5b613540905f3d8111613546575b61353881836113c6565b8101906118b1565b5f6134cf565b503d61352e565b61192d565b6118a7565b613576905f3d811161357c575b61356e81836113c6565b8101906118b1565b5f613463565b503d613564565b61192d565b6118a7565b946135c76135c26135b06135ab6135a660208901612869565b612a1e565b6121b9565b976135bc5f8801612869565b9061291b565b612a1e565b6131ad565b6135e26135db60808601612869565b60016129fe565b61316b565b6135fd6135f660a0860161290e565b6003611e36565b61314e565b5061361b6136126040870161146a565b5f6002016114b6565b61312b565b5061362d60408a0161146a565b61363f6136398c6101b3565b916101b3565b1415612c11565b612bc7612bbe6136566001610b0e565b96612ba4565b613664610172565b632d4eeeb360e21b81528061367b60048201610525565b0390fd5b508861369a61369461368f61282f565b6101b3565b916101b3565b10612b5e565b886136bd6136b76136b25f8c0161146a565b6101b3565b916101b3565b1080156136ca575b612b5f565b50886136e56136df6136da6127f0565b6101b3565b916101b3565b116136c5565b634e487b7160e01b5f52601260045260245ffd5b61370b613711916102df565b916102df565b90811561371c570490565b6136eb565b60409061374a613751949695939661374060608401985f850190610848565b6020830190610848565b0190610848565b565b61376761376261376c9261297c565b610c5a565b6102df565b90565b9061377a91016102df565b90565b9061378891026102df565b90565b90565b6137a261379d6137a79261378b565b610c5a565b6102df565b90565b90565b6137c16137bc6137c6926137aa565b610c5a565b6102df565b90565b906137d491036102df565b90565b9291926137e2611766565b506137eb611766565b506137f4611766565b505f19828209918082029283808210910303918261381a6138145f61185b565b916102df565b146139d1578261383261382c886102df565b916102df565b10156139a75761399e92866139a49697936138959361384f611766565b500990858211900394039360018361387961386a86196102df565b61387384613753565b9061376f565b16808095613885611766565b5004960493805f0304019061377d565b179161399861397c6139586139346139106138ec6138bd60036138b8899161378e565b61377d565b6138c760026137ad565b186138e660026138e16138db8b859061377d565b916137ad565b6137c9565b9061377d565b61390a60026139056138ff8a859061377d565b916137ad565b6137c9565b9061377d565b61392e600261392961392389859061377d565b916137ad565b6137c9565b9061377d565b613952600261394d61394788859061377d565b916137ad565b6137c9565b9061377d565b613976600261397161396b87859061377d565b916137ad565b6137c9565b9061377d565b9161399361398d600292859061377d565b916137ad565b6137c9565b9061377d565b9061377d565b90565b906139cd869291926139b7610172565b938493630c740aef60e31b855260048501613721565b0390fd5b505050916139df91926136ff565b90565b6139f66139f16139fb92610f15565b610c5a565b6102df565b90565b90565b613a15613a10613a1a926139fe565b610c5a565b6102df565b90565b613a269061188f565b90565b90505190613a36826102e2565b565b90602082820312613a5157613a4e915f01613a29565b90565b61017c565b613a5f90611497565b90565b613a6b90613a56565b90565b613a779061188f565b90565b91929092613abf837f0000000000000000000000000000000000000000000000000000000000000000613ab9613ab3620f4240926139e2565b91613a01565b91614865565b90613b01857f0000000000000000000000000000000000000000000000000000000000000000613afb613af5620f4240926139e2565b91613a01565b91614865565b91613b6b6020613b38613b337f000000000000000000000000000000000000000000000000000000000000000061246a565b612476565b6370a0823190613b605f613b4b30613a1d565b93613b54610172565b968795869485936118ab565b8352600483016101d7565b03925af19081156140d6575f916140a8575b50613be76020613bb4613baf7f000000000000000000000000000000000000000000000000000000000000000061246a565b612476565b6370a0823190613bdc5f613bc730613a1d565b93613bd0610172565b968795869485936118ab565b8352600483016101d7565b03925af19081156140a3575f91614075575b509486613c0e613c085f61185b565b916102df565b11613fc2575b87613c27613c215f61185b565b916102df565b11613f0f575b613c3e613c3933613a62565b613a6e565b9063e9cbafb0918491879690823b15613f0a575f94613c7b8692613c7094613c64610172565b9b8c98899788966118ab565b8652600486016118f7565b03925af1928315613f0557613cf693613ed9575b506020613cc3613cbe7f000000000000000000000000000000000000000000000000000000000000000061246a565b612476565b6370a0823190613ceb5f613cd630613a1d565b93613cdf610172565b988995869485936118ab565b8352600483016101d7565b03925af1928315613ed4575f93613e96575b50613d19613d2492613d1e9261193d565b6102df565b916102df565b10613e7357613d93916020613d60613d5b7f000000000000000000000000000000000000000000000000000000000000000061246a565b612476565b6370a0823190613d885f613d7330613a1d565b93613d7c610172565b988995869485936118ab565b8352600483016101d7565b03925af1928315613e6e575f93613e30575b50613db6613dc192613dbb9261193d565b6102df565b916102df565b10613e0d57339091613df37f1c1db1f1d6a01e51fec24bb54087b65fe5430f692280e70d92f718eb72ae76b792611962565b92613e08613dff610172565b92839283610855565b0390a2565b613e15610172565b637bc35e0560e01b815280613e2c60048201610525565b0390fd5b613dbb919350613dc192613e5d613db69260203d8111613e67575b613e5581836113c6565b810190613a38565b9492509250613da5565b503d613e4b565b61192d565b613e7b610172565b637bc35e0560e01b815280613e9260048201610525565b0390fd5b613d1e919350613d2492613ec3613d199260203d8111613ecd575b613ebb81836113c6565b810190613a38565b9492509250613d08565b503d613eb1565b61192d565b613ef8905f3d8111613efe575b613ef081836113c6565b8101906118b1565b5f613c8f565b503d613ee6565b61192d565b6118a7565b613f40613f3b7f000000000000000000000000000000000000000000000000000000000000000061246a565b612476565b63a9059cbb338a92803b15613fbd57613f6c5f8094613f77613f60610172565b978896879586946118ab565b845260048401612a3a565b03925af18015613fb857613f8c575b50613c2d565b613fab905f3d8111613fb1575b613fa381836113c6565b8101906118b1565b5f613f86565b503d613f99565b61192d565b6118a7565b613ff3613fee7f000000000000000000000000000000000000000000000000000000000000000061246a565b612476565b63a9059cbb338992803b156140705761401f5f809461402a614013610172565b978896879586946118ab565b845260048401612a3a565b03925af1801561406b5761403f575b50613c14565b61405e905f3d8111614064575b61405681836113c6565b8101906118b1565b5f614039565b503d61404c565b61192d565b6118a7565b614096915060203d811161409c575b61408e81836113c6565b810190613a38565b5f613bf9565b503d614084565b61192d565b6140c9915060203d81116140cf575b6140c181836113c6565b810190613a38565b5f613b7d565b503d6140b7565b61192d565b606090565b67ffffffffffffffff81116140f85760208091020190565b6113b2565b61410681610438565b0361410d57565b5f80fd5b9050359061411e826140fd565b565b90929192614135614130826140e0565b6113ef565b938185526020808601920283019281841161417257915b8383106141595750505050565b602080916141678486614111565b81520192019161414c565b610795565b614182913691614120565b90565b906141de916141926140db565b5061419d60076113a5565b906141a6614429565b9092916141b55f6002016105a9565b916141d86141c55f6002016105d7565b946141d25f6002016105fe565b96614177565b91615053565b90565b9160206142029294936141fb60408201965f830190610691565b0190610691565b565b6142276142135f600201610625565b9161421e60076113a5565b90839091614d7d565b908161423b614235836104dd565b916104dd565b03614245575b5050565b614252825f6002016115f3565b907fac49e518f90a358f652e4400164f05a5d8f7e35e7747279bc3a93dbf584e125a91614289614280610172565b928392836141e1565b0390a15f80614241565b61429b611766565b5061430560206142d26142cd7f000000000000000000000000000000000000000000000000000000000000000061246a565b612476565b6370a08231906142fa5f6142e530613a1d565b936142ee610172565b968795869485936118ab565b8352600483016101d7565b03925af1908115614349575f9161431b575b5090565b61433c915060203d8111614342575b61433481836113c6565b810190613a38565b5f614317565b503d61432a565b61192d565b614356611766565b506143c0602061438d6143887f000000000000000000000000000000000000000000000000000000000000000061246a565b612476565b6370a08231906143b55f6143a030613a1d565b936143a9610172565b968795869485936118ab565b8352600483016101d7565b03925af1908115614404575f916143d6575b5090565b6143f7915060203d81116143fd575b6143ef81836113c6565b810190613a38565b5f6143d2565b503d6143e5565b61192d565b5f90565b61442161441c614426926102df565b610c5a565b610438565b90565b614431614409565b5061443b4261440d565b90565b61445261444d61445792611386565b610c5a565b611298565b90565b61446e61446961447392611298565b610c5a565b61026f565b90565b9061447f612427565b508061449361448d5f61443e565b91611298565b125f146144b9576144af6144aa6144b5939261218e565b61445a565b9061242b565b905b565b6144c66144cc929161445a565b906121f3565b906144b7565b9190916144dd611d22565b50816144f16144eb5f61443e565b91611298565b125f1461452c57614528926145239261451661451161451e94939261218e565b61445a565b905f92614621565b612a1e565b6121b9565b5b90565b916145489161453f61454d94929161445a565b90600192614621565b612a1e565b614529565b1561455957565b5f80fd5b90565b60ff1690565b61457a61457561457f9261455d565b610c5a565b614560565b90565b61458c6060614566565b90565b1b90565b6145b2906145ac6145a66145b794614560565b916102df565b9061458f565b6102df565b90565b6145c66145cc916101b3565b916101b3565b90039060018060a01b0382116145de57565b611799565b6145f76145f26145fc926101b3565b610c5a565b6102df565b90565b61460b614611916102df565b916102df565b90811561461c570490565b6136eb565b9161462a611766565b508261463e614638846101b3565b916101b3565b116146ee575b61466c61467a916146678561466161465b5f611389565b916101b3565b11614552565b612482565b614674614582565b90614593565b61468d6146888385906145ba565b6145e3565b935f146146c0576146bc936146b6926146aa6146b09392916145e3565b91614865565b916145e3565b906148d3565b905b565b6146e8936146e2926146d66146dc9392916145e3565b916137d7565b916145e3565b906145ff565b906146be565b919061466c61467a9193915050614644565b91909161470b611d22565b508161471f6147195f61443e565b91611298565b125f1461475a57614756926147519261474461473f61474c94939261218e565b61445a565b905f926147af565b612a1e565b6121b9565b5b90565b916147769161476d61477b94929161445a565b906001926147af565b612a1e565b614757565b90565b61479761479261479c92614780565b610c5a565b6102df565b90565b6147ac600160601b614783565b90565b929190916147bb611766565b50836147cf6147c9856101b3565b916101b3565b11614841575b5f1461480d57614809926147e991926145ba565b6148036147fd6147f761479f565b93612482565b916145e3565b90614865565b905b565b61483b9261481b91926145ba565b61483561482f61482961479f565b93612482565b916145e3565b906137d7565b9061480b565b9291926147d5565b614852906102df565b5f1981146148605760010190565b611799565b929161486f611766565b5061487c848383916137d7565b9391909182156148ce57096148996148935f61185b565b916102df565b116148a1575b565b90806148c36148c8926148bd6148b75f196102df565b916102df565b10614552565b614849565b9061489f565b6136eb565b906148dc611766565b505f8183061191040190565b5f90565b6148f660606113ef565b90565b9061490390610438565b9052565b61491b61491661492092611386565b610c5a565b61044e565b90565b9061492d9061044e565b9052565b5061ffff90565b90565b61494481614931565b82101561495e57614956600191614938565b910201905f90565b610323565b61496d9051610438565b90565b9061497f63ffffffff91611477565b9181191691161790565b61499d6149986149a292610438565b610c5a565b610438565b90565b90565b906149bd6149b86149c492614989565b6149a5565b8254614970565b9055565b6149d2905161044e565b90565b60201b90565b906149f16affffffffffffff00000000916149d5565b9181191691161790565b614a0f614a0a614a149261044e565b610c5a565b61044e565b90565b90565b90614a2f614a2a614a36926149fb565b614a17565b82546149db565b9055565b60581b90565b90614a4f60ff60581b91614a3a565b9181191691161790565b614a6290610461565b90565b90565b90614a7d614a78614a8492614a59565b614a65565b8254614a40565b9055565b90614aca60405f614ad094614aaa828201614aa4848801614963565b906149a8565b614ac2828201614abc602088016149c8565b90614a1a565b01920161296f565b90614a68565b565b9190614ae357614ae191614a88565b565b611457565b614afc614af7614b019261297c565b610c5a565b6104dd565b90565b614b5d614b6392614b136148e8565b50614b1c6148e8565b5091614b565f614b4d614b44600192614b3f614b366148ec565b985f8a016148f9565b614907565b60208701614923565b60408501612900565b5f9061493b565b90614ad2565b614b6d6001614ae8565b90614b786001614ae8565b90565b614b8560606113ef565b90565b90614bd5614bcc5f614b98614b7b565b94614baf614ba783830161038b565b8388016148f9565b614bc6614bbd8383016103b8565b60208801614923565b016103e5565b60408401612900565b565b614be090614b88565b90565b614bef614bf5916104dd565b916104dd565b90039061ffff8211614c0357565b611799565b614c14614c1a916104dd565b916104dd565b019061ffff8211614c2757565b611799565b614c38614c3e916104dd565b916104dd565b908115614c49570690565b6136eb565b929094959395614c5c6148e8565b50614c656148e8565b50614c7a614c7485889061493b565b50614bd7565b96614c865f8901614963565b614c98614c9286610438565b91610438565b14614d395792614cfc92614ceb614ce484614d029897614cf496614cc4614cbe836104dd565b916104dd565b1180614d0c575b5f14614d045750995b614cde6001614ae8565b90614c08565b8990614c2c565b98919091614f22565b91869061493b565b90614ad2565b565b905099614cd4565b508b614d33614d2d614d2884614d226001614ae8565b90614be3565b6104dd565b916104dd565b14614ccb565b965050505050909190565b614d4d906104dd565b61ffff8114614d5c5760010190565b611799565b614d75614d70614d7a9261297c565b610c5a565b610438565b90565b9290614d876148e8565b5082614d9b614d95836104dd565b916104dd565b1115614def575b80614db5614daf856104dd565b916104dd565b1015614de957614de490614ddf614dcc6001614d61565b5f614dd888859061493b565b50016149a8565b614d44565b614da2565b50915090565b9150915090565b5f90565b5f90565b614e06614b7b565b906020808084614e14614df6565b815201614e1f614dfa565b815201614e2a61288b565b81525050565b614e38614dfe565b90565b614e47614e4d91610438565b91610438565b90039063ffffffff8211614e5d57565b611799565b66ffffffffffffff1690565b614e82614e7d614e8792610438565b610c5a565b614e62565b90565b614e9e614e99614ea39261067e565b610c5a565b61044e565b90565b614eba614eb5614ebf92614e62565b610c5a565b61044e565b90565b614ece614ed49161044e565b9161044e565b0290614edf8261044e565b918203614ee857565b611799565b614ef9614eff9161044e565b9161044e565b0190667fffffffffffff198212667fffffffffffff831317614f1d57565b611799565b91614f8090614f7a614fac93614f36614e30565b50614f74614f6e614f686020614f60614f5b8b614f555f899201614963565b90614e3b565b614e6e565b9499016149c8565b94614e8a565b91614ea6565b90614ec2565b90614eed565b614fa3600191614f9a614f916148ec565b955f87016148f9565b60208501614923565b60408301612900565b90565b5190565b67ffffffffffffffff8111614fcb5760208091020190565b6113b2565b90614fe2614fdd83614fb3565b6113ef565b918252565b369037565b90615011614ff983614fd0565b926020806150078693614fb3565b9201910390614fe7565b565b9061501d82614faf565b81101561502e576020809102010190565b610323565b9061503d82610d52565b81101561504e576020809102010190565b610323565b9594929093916150616140db565b5061507361506e82614faf565b614fec565b9661507d5f61185b565b5b8061509961509361508e86614faf565b6102df565b916102df565b10156150e5576150e0906150db6150c9848a6150be6150b9898790615013565b614963565b89908b928d94615181565b6150d68c91849092615033565b614923565b614849565b61507e565b50505050505050565b5f90565b61510661510161510b92611386565b610c5a565b610438565b90565b61511a6151209161044e565b9161044e565b900390667fffffffffffff8213667fffffffffffff1983121761513f57565b611799565b6151506151569161044e565b9161044e565b90811561517c5760015f038214667fffffffffffff19821416615177570590565b611799565b6136eb565b93909294919461518f6150ee565b50856151a361519d5f6150f2565b91610438565b146152d0576151b66151c2959685614e3b565b959386919293946153ba565b91806151e06151da6151d55f8601614963565b610438565b91610438565b145f146151f857506151f591506020016149c8565b90565b8061521561520f61520a5f8701614963565b610438565b91610438565b145f1461522d575050602061522a91016149c8565b90565b82916152c16152bb6152c7936152b56152af61528661528161526f61526a6152595f6152cd9e01614963565b6152645f8c01614963565b90614e3b565b614e6e565b9461527b5f8a01614963565b90614e3b565b614e6e565b956152a960206152a28161529b8186016149c8565b9c016149c8565b92016149c8565b9061510e565b91614ea6565b90615144565b91614ea6565b90614ec2565b90614eed565b90565b92915061531994506152e76152ed9160209561493b565b50614bd7565b916152f95f8401614963565b61530b61530584610438565b91610438565b0361531c575b5050016149c8565b90565b61532892919091614f22565b5f80615311565b60209181520190565b5f7f4f4c440000000000000000000000000000000000000000000000000000000000910152565b61536c600360209261532f565b61537581615338565b0190565b61538e9060208101905f81830391015261535f565b90565b1561539857565b6153a0610172565b62461bcd60e51b8152806153b660048201615379565b0390fd5b95949295939190936153ca614e30565b506153d3614e30565b966153e86153e283869061493b565b50614bd7565b906153ff876153f85f8501614963565b869161557a565b6154a857505061547f95965061543c61543682615430615429876154236001614ae8565b90614c08565b8890614c2c565b9061493b565b50614bd7565b61545161544b6040830161296f565b15610461565b615485575b615470615475916154695f899201614963565b859161557a565b615391565b93909192936156d3565b91909190565b506154756154706154a061549a845f9061493b565b50614bd7565b915050615456565b93508095506154bc9294505f915001614963565b6154ce6154c884610438565b91610438565b145f146154db5750509190565b826154eb93955094919091614f22565b90565b5f90565b64ffffffffff1690565b61551061550b61551592610438565b610c5a565b6154f2565b90565b90565b61552f61552a61553492615518565b610c5a565b6154f2565b90565b615543615549916154f2565b916154f2565b019064ffffffffff821161555957565b611799565b61557261556d615577926154f2565b610c5a565b6102df565b90565b91906155846154ee565b508061559861559285610438565b91610438565b11158061567a575b61565f57615605615610926155db8361560a946155c56155bf89610438565b91610438565b115f1461563a576155d5906154fc565b5b61555e565b946155ef6155e98392610438565b91610438565b115f14615615576155ff906154fc565b5b61555e565b6102df565b916102df565b111590565b6156359061563061562a64010000000061551b565b916154fc565b615537565b615600565b61565a9061565561564f64010000000061551b565b916154fc565b615537565b6155d6565b61567591925061566f9092610438565b91610438565b111590565b508161568e61568885610438565b91610438565b11156155a0565b6156a96156a46156ae926104dd565b610c5a565b6102df565b90565b6156bd6156c3916102df565b916102df565b9081156156ce570690565b6136eb565b9294909193946156e1614e30565b9061571061570b6157046156f3614e30565b936156fe6001614ae8565b90614c08565b8990614c2c565b615695565b90615737615727836157218b615695565b9061193d565b6157316001613753565b9061291b565b92615740611766565b505b600115615897575061576861575883859061193d565b61576260026137ad565b906145ff565b61578f615789886157838c61577d8691615695565b906156b1565b9061493b565b50614bd7565b916157a561579f6040850161296f565b15610461565b61587b57506157e46157de886157d88c6157d26157cc876157c66001613753565b9061193d565b91615695565b906156b1565b9061493b565b50614bd7565b936157fb876157f45f8601614963565b8b9161557a565b808061585f575b615851576158109015610461565b5f14615834575061582b906158256001613753565b9061291b565b925b5b90615742565b93925061584b906158456001613753565b9061193d565b9161582d565b50505096505093509150505b565b50615876888b6158705f8a01614963565b9161557a565b615802565b92506158919061588b6001613753565b9061193d565b9161582e565b97509550505091505061585d565b60601b90565b6158b4906158a5565b90565b6158c0906158ab565b90565b6158cf6158d4916101be565b6158b7565b9052565b60e81b90565b6158e7906158d8565b90565b6158f66158fb9161067e565b6158de565b9052565b6003939261591f6014836159178895615927976158c3565b0180926158ea565b0180926158ea565b0190565b60200190565b5190565b90565b9261596d6159869361595e61598b96949193615952610172565b948593602085016158ff565b602082018103825203826113c6565b61597f61597982615931565b9161592b565b2090610ac3565b615935565b90565b9192615a5190615a486159db6159d66159b3886159ad60018a01610b0e565b9061291b565b6159be5f8901610aed565b906159d06159ca61295f565b92612482565b906137d7565b6121d7565b95615a3f615a37615a26615a216159fe876159f860028d01610b0e565b9061291b565b615a095f8c01610aed565b90615a1b615a1561295f565b92612482565b906137d7565b6121d7565b96615a325f8a01610aed565b614476565b5f8801611e36565b600186016129fe565b600284016129fe565b82615a64615a5e5f6117de565b9161026f565b118015615abd575b615a76575b505050565b6003615aaf91615a9e615ab595615a9884870191615a9383610aed565b6121f3565b90611e36565b920191615aaa83610b35565b6121f3565b90612251565b5f8080615a71565b5080615ad1615acb5f6117de565b9161026f565b11615a6c565b5f90565b615aef615aea615af4926139fe565b610c5a565b610f15565b90565b615b03615b0991610f15565b91610f15565b90039062ffffff8211615b1857565b611799565b939491929094615b2b615ad7565b50615b34611766565b50615b3d611766565b50615b46611766565b50615c0685615b5d615b57896101b3565b916101b3565b101594615b9684615b7a620f4240615b758791615adb565b615af7565b615b90615b8a620f4240926139e2565b91613a01565b916137d7565b90865f14615cb057615bad888a8390600192614621565b5b9180615bc2615bbc856102df565b916102df565b10155f14615c9c5750885b615be0615bda8b926101b3565b916101b3565b14965f14615c6b57615bfe91875f14615c56575b9790895f926147af565b945b15610461565b5f14615c1c5750615c1890849061291b565b905b565b615c5091508490615c4a615c44615c3e83615c39620f4240615adb565b615af7565b926139e2565b916139e2565b91614865565b90615c1a565b50615c66888a8390600192614621565b615bf4565b615c8191875f14615c87575b9790895f92614621565b94615c00565b50615c97888a83906001926147af565b615c77565b615caa908990838a92615cc4565b98615bcd565b615cbf888a83906001926147af565b615bae565b92919091615cd0615ad7565b505f14615ce757615ce392919091615d49565b5b90565b615cf392919091615e1b565b615ce4565b615d07615d0d919392936102df565b926102df565b91615d198382026102df565b928184041490151715615d2857565b611799565b615d41615d3c615d46926102df565b610c5a565b6101b3565b90565b9190615d60615d6e91615d5a615ad7565b50612482565b615d68614582565b90614593565b91615d8282615d7c836145e3565b90615cf8565b615d8d8184906145ff565b615d9f615d99846145e3565b916102df565b14615dd8575b5091615dca615dd092615dc5615dd595615dbf85916145e3565b906145ff565b61193d565b906148d3565b615d2d565b90565b615de2908461193d565b80615df5615def866102df565b916102df565b10615da55790615e139250615e0d615e1894916145e3565b90614865565b615d2d565b90565b91615e51615e5792615e38615e5c95615e32615ad7565b506145e3565b9290615e4b615e4561479f565b91612482565b916137d7565b9061193d565b615d2d565b90565b90565b90615e6e60ff91611477565b9181191691161790565b90615e8d615e88615e9492614a59565b614a65565b8254615e62565b9055565b60081b90565b90615eba70ffffffffffffffffffffffffffffffff0091615e98565b9181191691161790565b90615ed9615ed4615ee092611e17565b611e33565b8254615e9e565b9055565b615ef8615ef3615efd92611298565b610c5a565b611083565b90565b615f0f615f1591939293611083565b92611083565b808301925f82851215818312169285129112151617615f3057565b611799565b615f49615f44615f4e92611083565b610c5a565b611298565b90565b615f60615f6691939293611083565b92611083565b91828103925f828512818312169285139112151617615f8157565b611799565b615f9a615f95615f9f92611298565b610c5a565b611298565b90565b90565b90615fba615fb5615fc192615f86565b615fa2565b8254611df2565b9055565b600193929796916160a69695615ff0615feb61606a94615fe36154ee565b5084906111c8565b615e5f565b96615ffc5f8901611219565b9a6160088c8890614476565b938c61604361603d8761602361601d5f6117de565b9161026f565b14926160376160315f6117de565b9161026f565b14610461565b91610461565b14159c6160586160525f6117de565b9161026f565b146160dc575b505050505f8601615ec4565b5f146160a85761609961609e9161609361608d616088868801611240565b615ee4565b91615ee4565b90615f51565b615f35565b915b01615fa5565b565b6160d16160d6916160cb6160c56160c0868801611240565b615ee4565b91615ee4565b90615f00565b615f35565b916160a0565b6160e96160ef919261067e565b9161067e565b131561610d575b5050616104855f8801615e78565b5f80808061605e565b61611d6161269260028a016129fe565b600388016129fe565b5f806160f6565b5f90565b61618d61619c9461617b61617261615f61615a600198976161969761615461612d565b506111c8565b615e5f565b9561616c60028801610b0e565b9061291b565b600286016129fe565b61618760038501610b0e565b9061291b565b600383016129fe565b01611240565b90565b6162919493916162816162869261628c959998996161bb611766565b506161c4611766565b508a886161ed6161e86161e06161db878a906111c8565b615e5f565b9585906111c8565b615e5f565b956161f6611766565b506161ff611766565b5061621361620d8a9261067e565b9161067e565b12155f146162c757505061625b61625561623b600361623460028701610b0e565b9501610b0e565b975b616245611766565b5061624e611766565b509261067e565b9161067e565b125f146162945761627a600361627360028601610b0e565b9401610b0e565b965b61291b565b61291b565b9561291b565b61291b565b90565b6162c16162ad886162a760028701610b0e565b9061291b565b936162bb60038d9201610b0e565b9061291b565b9661627c565b6162fb61625b92946162f560036162ed616255956162e760028601610b0e565b9061291b565b979201610b0e565b9061291b565b9761623d565b61630d6163139161067e565b9161067e565b90811561631e570790565b6136eb565b61633761633261633c92611386565b610c5a565b61067e565b90565b61634b6163519161067e565b9161067e565b9081156163735760015f038214627fffff1982141661636e570590565b611799565b6136eb565b906163cc6163ba6163b56163e3956163d2946163b0616398828490616301565b6163aa6163a45f616323565b9161067e565b14614552565b61633f565b6164aa565b9190916163c76001613753565b614593565b92610c79565b906163dc82610b0e565b18906129fe565b565b5f90565b5f90565b90565b6164046163ff616409926163ed565b610c5a565b614560565b90565b1d90565b61642f9061642961642361643494614560565b9161067e565b9061640c565b61067e565b90565b61644b6164466164509261067e565b610c5a565b610c13565b90565b90565b61646a61646561646f92616453565b610c5a565b61067e565b90565b61648661648161648b9261067e565b610c5a565b610f15565b90565b6164a261649d6164a792610f15565b610c5a565b614560565b90565b906164b36163e5565b506164bc6163e9565b506164fe6164f96164f46164e26164dd866164d760086163f0565b90616410565b616437565b946164ee610100616456565b90616301565b616472565b61648e565b90565b5f90565b61650e9061067e565b627fffff198114616520576001900390565b611799565b6165316165379161067e565b9161067e565b0190627fffff198212627fffff83131761654d57565b611799565b61655e61656491614560565b91614560565b90039060ff821161657157565b611799565b61658a61658561658f92614560565b610c5a565b610f15565b90565b61659e6165a49161067e565b9161067e565b02906165af8261067e565b9182036165b857565b611799565b929190916165c9616501565b506165d26154ee565b506165de83839061633f565b92806165f26165ec5f616323565b9161067e565b129081616810575b50616800575b5f146166ec5761666292616667616616846164aa565b959061665c616642616632600161662d8b91613753565b614593565b61663c6001613753565b9061291b565b61665660016166518b91613753565b614593565b9061193d565b93610c79565b610b0e565b16928361667c6166765f61185b565b916102df565b141593845f146166c257906166b26166ad6166a86166b8946166a26166bd989591616a01565b90616552565b616576565b611dd6565b9061299b565b616592565b5b915b565b506166e2906166dc6166d76166e79592616576565b611dd6565b9061299b565b616592565b6166be565b6167479261674c61670f61670a85616704600161297f565b90616525565b6164aa565b959061674161673b61672b60016167268b91613753565b614593565b6167356001613753565b9061291b565b196102df565b93610c79565b610b0e565b168061676061675a5f61185b565b916102df565b141593845f146167b957906167a76167a261679d6167ad946167986167926167b29961678c600161297f565b90616525565b95616d0e565b616552565b616576565b611dd6565b90616525565b616592565b5b916166c0565b6167f691506167f06167eb6167e66167de6167fb976167d8600161297f565b90616525565b9360ff616552565b616576565b611dd6565b90616525565b616592565b6167b3565b9161680a90616505565b91616600565b61681c91508390616301565b61682e6168285f616323565b9161067e565b14155f6165fa565b90565b61684d61684861685292616836565b610c5a565b614560565b90565b6168749061686e61686861687994614560565b916102df565b90610221565b6102df565b90565b61688861688e91614560565b91614560565b019060ff821161689a57565b611799565b90565b6168b66168b16168bb9261689f565b610c5a565b6102df565b90565b90565b6168d56168d06168da926168be565b610c5a565b614560565b90565b6168f16168ec6168f692615518565b610c5a565b6102df565b90565b90565b61691061690b616915926168f9565b610c5a565b614560565b90565b90565b61692f61692a61693492616918565b610c5a565b6102df565b90565b90565b61694e61694961695392616937565b610c5a565b614560565b90565b61696a61696561696f92616453565b610c5a565b6102df565b90565b61698661698161698b92616937565b610c5a565b6102df565b90565b90565b6169a56169a06169aa9261698e565b610c5a565b614560565b90565b6169c16169bc6169c69261698e565b610c5a565b6102df565b90565b6169dd6169d86169e2926137aa565b610c5a565b614560565b90565b6169f96169f46169fe9261297c565b610c5a565b614560565b90565b90616a0a6163e9565b91616a2781616a21616a1b5f61185b565b916102df565b11614552565b80616a3e616a38600160801b612943565b916102df565b1015616c41575b80616a61616a5b680100000000000000006168a2565b916102df565b1015616c13575b80616a80616a7a6401000000006168dd565b916102df565b1015616be5575b80616a9d616a976201000061691b565b916102df565b1015616bb7575b80616ab9616ab3610100616956565b916102df565b1015616b89575b80616ad4616ace6010616972565b916102df565b1015616b5b575b80616aef616ae960046169ad565b916102df565b1015616b2d575b616b09616b0360026137ad565b916102df565b1015616b12575b565b90616b2790616b2160016169e5565b9061687c565b90616b10565b616b44616b5591616b3e60026169c9565b90616855565b92616b4f60026169c9565b9061687c565b91616af6565b616b72616b8391616b6c6004616991565b90616855565b92616b7d6004616991565b9061687c565b91616adb565b616ba0616bb191616b9a60086163f0565b90616855565b92616bab60086163f0565b9061687c565b91616ac0565b616bce616bdf91616bc8601061693a565b90616855565b92616bd9601061693a565b9061687c565b91616aa4565b616bfc616c0d91616bf660206168fc565b90616855565b92616c0760206168fc565b9061687c565b91616a87565b616c2a616c3b91616c2460406168c1565b90616855565b92616c3560406168c1565b9061687c565b91616a68565b616c58616c6991616c526080616839565b90616855565b92616c636080616839565b9061687c565b91616a45565b90565b616c86616c81616c8b92616c6f565b610c5a565b614560565b90565b67ffffffffffffffff1690565b616caf616caa616cb492616c8e565b610c5a565b6102df565b90565b616ccb616cc6616cd092610438565b610c5a565b6102df565b90565b616ce7616ce2616cec92614560565b610c5a565b6102df565b90565b90565b616d06616d01616d0b92616cef565b610c5a565b6102df565b90565b90616d176163e9565b50616d3482616d2e616d285f61185b565b916102df565b11614552565b616d3e60ff616c72565b82616d586fffffffffffffffffffffffffffffffff612482565b16616d6b616d655f61185b565b916102df565b115f14616fd057616d8690616d806080616839565b90616552565b5b82616d9967ffffffffffffffff616c9b565b16616dac616da65f61185b565b916102df565b115f14616fb557616dc790616dc160406168c1565b90616552565b5b82616dd663ffffffff616cb7565b16616de9616de35f61185b565b916102df565b115f14616f9a57616e0490616dfe60206168fc565b90616552565b5b82616e1161ffff615695565b16616e24616e1e5f61185b565b916102df565b115f14616f7f57616e3f90616e39601061693a565b90616552565b5b82616e4b60ff616cd3565b16616e5e616e585f61185b565b916102df565b115f14616f6457616e7990616e7360086163f0565b90616552565b5b82616e85600f616cf2565b16616e98616e925f61185b565b916102df565b115f14616f4957616eb390616ead6004616991565b90616552565b5b82616ebf600361378e565b16616ed2616ecc5f61185b565b916102df565b115f14616f2f57616eed90616ee760026169c9565b90616552565b915b616ef96001613753565b16616f0c616f065f61185b565b916102df565b11616f14575b565b90616f2990616f2360016169e5565b90616552565b90616f12565b91616f4490616f3e60026169c9565b90616855565b616eef565b91616f5e90616f586004616991565b90616855565b91616eb4565b91616f7990616f7360086163f0565b90616855565b91616e7a565b91616f9490616f8e601061693a565b90616855565b91616e40565b91616faf90616fa960206168fc565b90616855565b91616e05565b91616fca90616fc460406168c1565b90616855565b91616dc8565b91616fe590616fdf6080616839565b90616855565b91616d87565b616fff616ffa6170049261067e565b610c5a565b611083565b90565b5f7f5400000000000000000000000000000000000000000000000000000000000000910152565b61703b600160209261532f565b61704481617007565b0190565b61705d9060208101905f81830391015261702e565b90565b1561706757565b61706f610172565b62461bcd60e51b81528061708560048201617048565b0390fd5b70ffffffffffffffffffffffffffffffffff1690565b6170b36170ae6170b892612940565b610c5a565b617089565b90565b90565b6170d26170cd6170d7926170bb565b610c5a565b617089565b90565b6170ee6170e96170f392617089565b610c5a565b6102df565b90565b90565b61710d617108617112926170f6565b610c5a565b6102df565b90565b90565b61712c61712761713192617115565b610c5a565b6102df565b90565b61714861714361714d926163ed565b610c5a565b6102df565b90565b90565b61716761716261716c92617150565b610c5a565b6102df565b90565b90565b61718661718161718b9261716f565b610c5a565b6102df565b90565b6171a261719d6171a7926168f9565b610c5a565b6102df565b90565b90565b6171c16171bc6171c6926171aa565b610c5a565b6102df565b90565b6171dd6171d86171e2926168be565b610c5a565b6102df565b90565b90565b6171fc6171f7617201926171e5565b610c5a565b6102df565b90565b61721861721361721d92616836565b610c5a565b6102df565b90565b90565b61723761723261723c92617220565b610c5a565b6102df565b90565b90565b61725661725161725b9261723f565b610c5a565b6102df565b90565b90565b61727561727061727a9261725e565b610c5a565b6102df565b90565b90565b61729461728f6172999261727d565b610c5a565b6102df565b90565b90565b6172b36172ae6172b89261729c565b610c5a565b6102df565b90565b90565b6172d26172cd6172d7926172bb565b610c5a565b6102df565b90565b90565b6172f16172ec6172f6926172da565b610c5a565b6102df565b90565b90565b61731061730b617315926172f9565b610c5a565b6102df565b90565b90565b61732f61732a61733492617318565b610c5a565b6102df565b90565b90565b61734e61734961735392617337565b610c5a565b6102df565b90565b90565b61736d61736861737292617356565b610c5a565b6102df565b90565b90565b61738c61738761739192617375565b610c5a565b6102df565b90565b90565b6173ab6173a66173b092617394565b610c5a565b6102df565b90565b90565b6173ca6173c56173cf926173b3565b610c5a565b6102df565b90565b90565b6173e96173e46173ee926173d2565b610c5a565b6102df565b90565b90565b61740861740361740d926173f1565b610c5a565b6102df565b90565b90565b61742761742261742c92617410565b610c5a565b6102df565b90565b90565b61744661744161744b9261742f565b610c5a565b6102df565b90565b90565b61746561746061746a9261744e565b610c5a565b6102df565b90565b90565b61748461747f6174899261746d565b610c5a565b6102df565b90565b90565b6174a361749e6174a89261748c565b610c5a565b6102df565b90565b90565b6174c26174bd6174c7926174ab565b610c5a565b6102df565b90565b90565b6174e16174dc6174e6926174ca565b610c5a565b6102df565b90565b6174fd6174f861750292611386565b610c5a565b614560565b90565b6178f76178fc91617514615ad7565b50806175286175225f616323565b9161067e565b125f14617db65761754861754361753e83616feb565b6121b9565b61183f565b5b9061757e8261757761757161756c6175676175626117cb565b616472565b6139e2565b6102df565b916102df565b1115617060565b816175896001613753565b1661759c6175965f61185b565b916102df565b14155f14617da1576175c66175c06ffffcb933bd6fad37aa2d162d1a5940016170be565b5b6170da565b91806175d260026137ad565b166175e56175df5f61185b565b916102df565b03617d64575b806175f660046169ad565b166176096176035f61185b565b916102df565b03617d27575b8061761a6008617134565b1661762d6176275f61185b565b916102df565b03617cea575b8061763e6010616972565b1661765161764b5f61185b565b916102df565b03617cad575b80617662602061718e565b1661767561766f5f61185b565b916102df565b03617c70575b8061768660406171c9565b166176996176935f61185b565b916102df565b03617c33575b806176aa6080617204565b166176bd6176b75f61185b565b916102df565b03617bf6575b806176cf610100616956565b166176e26176dc5f61185b565b916102df565b03617bb9575b806176f4610200617261565b166177076177015f61185b565b916102df565b03617b7c575b8061771961040061729f565b1661772c6177265f61185b565b916102df565b03617b3f575b8061773e6108006172dd565b1661775161774b5f61185b565b916102df565b03617b02575b8061776361100061731b565b166177766177705f61185b565b916102df565b03617ac5575b80617788612000617359565b1661779b6177955f61185b565b916102df565b03617a88575b806177ad614000617397565b166177c06177ba5f61185b565b916102df565b03617a4b575b806177d26180006173d5565b166177e56177df5f61185b565b916102df565b03617a0e575b806177f86201000061691b565b1661780b6178055f61185b565b916102df565b036179d1575b8061781e62020000617432565b1661783161782b5f61185b565b916102df565b03617995575b8061784462040000617470565b166178576178515f61185b565b916102df565b0361795a575b617869620800006174ae565b1661787c6178765f61185b565b916102df565b03617921575b61789461788e5f616323565b9161067e565b13617911575b6178c66178b1826178ab60206168fc565b90616855565b916178c06401000000006168dd565b906156b1565b6178d86178d25f61185b565b916102df565b145f146178ff576178f16178eb5f6174e9565b5b616cd3565b9061193d565b615d2d565b90565b6178f161790c60016169e5565b6178ec565b61791c905f196145ff565b61789a565b906179446179549161793e6b048a170391f7dc42444e8fa26174cd565b90615cf8565b61794e6080616839565b90616855565b90617882565b9161797f61798f916179796d2216e584f5fa1ea926041bedfe9861748f565b90615cf8565b6179896080616839565b90616855565b9161785d565b916179bb6179cb916179b56e5d6af8dedb81196699c329225ee604617451565b90615cf8565b6179c56080616839565b90616855565b91617837565b916179f8617a08916179f26f09aa508b5b7a84e1c677de54f3e99bc9617413565b90615cf8565b617a026080616839565b90616855565b91617811565b91617a35617a4591617a2f6f31be135f97d08fd981231505542fcfa66173f4565b90615cf8565b617a3f6080616839565b90616855565b916177eb565b91617a72617a8291617a6c6f70d869a156d2a1b890bb3df62baf32f76173b6565b90615cf8565b617a7c6080616839565b90616855565b916177c6565b91617aaf617abf91617aa96fa9f746462d870fdf8a65dc1f90e061e5617378565b90615cf8565b617ab96080616839565b90616855565b916177a1565b91617aec617afc91617ae66fd097f3bdfd2022b8845ad8f792aa582561733a565b90615cf8565b617af66080616839565b90616855565b9161777c565b91617b29617b3991617b236fe7159475a2c29b7443b29c7fa6e889d96172fc565b90615cf8565b617b336080616839565b90616855565b91617757565b91617b66617b7691617b606ff3392b0822b70005940c7a398e4b70f36172be565b90615cf8565b617b706080616839565b90616855565b91617732565b91617ba3617bb391617b9d6ff987a7253ac413176f2b074cf7815e54617280565b90615cf8565b617bad6080616839565b90616855565b9161770d565b91617be0617bf091617bda6ffcbe86c7900a88aedcffc83b479aa3a4617242565b90615cf8565b617bea6080616839565b90616855565b916176e8565b91617c1d617c2d91617c176ffe5dee046a99a2a811c461f1969c3053617223565b90615cf8565b617c276080616839565b90616855565b916176c3565b91617c5a617c6a91617c546fff2ea16466c96a3843ec78b326b528616171e8565b90615cf8565b617c646080616839565b90616855565b9161769f565b91617c97617ca791617c916fff973b41fa98c081472e6896dfb254c06171ad565b90615cf8565b617ca16080616839565b90616855565b9161767b565b91617cd4617ce491617cce6fffcb9843d60f6159c9db58835c926644617172565b90615cf8565b617cde6080616839565b90616855565b91617657565b91617d11617d2191617d0b6fffe5caca7e10e4e61c3624eaa0941cd0617153565b90615cf8565b617d1b6080616839565b90616855565b91617633565b91617d4e617d5e91617d486ffff2e50f5f656932ef12357cf3c7fdcc617118565b90615cf8565b617d586080616839565b90616855565b9161760f565b91617d8b617d9b91617d856ffff97272373d413259a46990580e213a6170f9565b90615cf8565b617d956080616839565b90616855565b916175eb565b6175c6617db1600160801b61709f565b6175c1565b617dc7617dc282616feb565b61183f565b617549565b5f7f5200000000000000000000000000000000000000000000000000000000000000910152565b617e00600160209261532f565b617e0981617dcc565b0190565b617e229060208101905f818303910152617df3565b90565b15617e2c57565b617e34610172565b62461bcd60e51b815280617e4a60048201617e0d565b0390fd5b90565b617e65617e60617e6a92617e4e565b610c5a565b6102df565b90565b617e8c90617e86617e80617e91946102df565b916102df565b9061458f565b6102df565b90565b617eb390617ead617ea7617eb8946102df565b916102df565b90610221565b6102df565b90565b617ecf617eca617ed492616836565b610c5a565b611083565b90565b617ef690617ef0617eea617efb94614560565b91611083565b9061458f565b611083565b90565b90565b617f15617f10617f1a92617efe565b610c5a565b611083565b90565b617f2c617f3291939293611083565b92611083565b91617f3e838202611083565b92600160ff1b81145f831216617f61578184051490151715617f5c57565b611799565b611799565b90565b617f7d617f78617f8292617f66565b610c5a565b611083565b90565b617fa490617f9e617f98617fa994614560565b91611083565b9061640c565b611083565b90565b617fc0617fbb617fc592611083565b610c5a565b61067e565b90565b90565b617fdf617fda617fe492617fc8565b610c5a565b611083565b90565b617fef616501565b508061800a618004617fff61282f565b6101b3565b916101b3565b101580618317575b61801b90617e25565b61822461803a61802a836145e3565b61803460206168fc565b90614593565b61812161811161810183600161804f5f61185b565b916fffffffffffffffffffffffffffffffff811160071b809317921c67ffffffffffffffff811160061b809317921c63ffffffff811160051b809317921c61ffff811160041b809317921c60ff811160031b809317921c600f811160021b809317921c60038111821b809317921c111793846180d46180ce6080617204565b916102df565b10155f146182f3576180fa906180f4866180ee607f617e51565b9061291b565b90617e94565b935b612a1e565b61810b6080617ebb565b90615f51565b61811b60406168c1565b90617ed7565b908002607f1c8060801c9182603f1b17911c8002607f1c8060801c9182603e1b17911c8002607f1c8060801c9182603d1b17911c8002607f1c8060801c9182603c1b17911c8002607f1c8060801c9182603b1b17911c8002607f1c8060801c9182603a1b17911c8002607f1c8060801c918260391b17911c8002607f1c8060801c918260381b17911c8002607f1c8060801c918260371b17911c8002607f1c8060801c918260361b17911c8002607f1c8060801c918260351b17911c8002607f1c8060801c918260341b17911c8002607f1c8060801c918260331b17911c8002607f1c60801c60321b1761821e693627a301d71055774c85617f01565b90617f1d565b6182a061829b61828b61826b618266618256866182506f028f6481ab7f045a5af012a19d003aaa617f69565b90615f51565b6182606080616839565b90617f85565b617fac565b936182856fdb2df09e81959a81455e260799a0632f617fcb565b90615f00565b6182956080616839565b90617f85565b617fac565b91816182b46182ae8561067e565b9161067e565b145f146182c2575090505b90565b6182dd6182d76182d185617505565b926101b3565b916101b3565b11155f146182ec57505b6182bf565b90506182e7565b6183119061830b607f6183068891617e51565b61291b565b90617e6d565b936180fc565b5061801b8161833561832f61832a6127f0565b6101b3565b916101b3565b10905061801256fea264697066735822122060e383310a4de846297959b610ef33d12be92c529a25381edc533275c047d24264736f6c63430008150033",
        "linkReferences": {}
    },
    "methodIdentifiers": {
        "burn(int24,int24,uint128)": "a34123a7",
        "collect(address,int24,int24,uint128,uint128)": "4f1eb3d8",
        "factory()": "c45a0155",
        "fee()": "ddca3f43",
        "feeGrowthGlobal0X128()": "f3058399",
        "feeGrowthGlobal1X128()": "46141319",
        "flash(uint256,uint256,bytes)": "4a182392",
        "increaseObservationCardinalityNext(uint16)": "32148f67",
        "initialize(uint160)": "f637731d",
        "liquidity()": "1a686502",
        "mint(address,int24,int24,uint128,bytes)": "3c8a7d8d",
        "observations(uint256)": "252c09d7",
        "observe(uint32[])": "883bdbfd",
        "positions(bytes32)": "514ea4bf",
        "slot0()": "3850c7bd",
        "swap(address,bool,uint256,uint160,bytes)": "dd5a12d8",
        "tickBitmap(int16)": "5339c296",
        "tickSpacing()": "d0c93a7c",
        "ticks(int24)": "f30dba93",
        "token0()": "0dfe1681",
        "token1()": "d21220a7"
    },
    "id": 34
}